{
  "_format": "hh-sol-artifact-1",
  "contractName": "USDT",
  "sourceName": "contracts/USDT.sol",
  "abi": [
    {
      "inputs": [
        {
          "internalType": "string",
          "name": "name",
          "type": "string"
        },
        {
          "internalType": "string",
          "name": "symbol",
          "type": "string"
        }
      ],
      "stateMutability": "nonpayable",
      "type": "constructor"
    },
    {
      "anonymous": false,
      "inputs": [
        {
          "indexed": true,
          "internalType": "address",
          "name": "owner",
          "type": "address"
        },
        {
          "indexed": true,
          "internalType": "address",
          "name": "spender",
          "type": "address"
        },
        {
          "indexed": false,
          "internalType": "uint256",
          "name": "value",
          "type": "uint256"
        }
      ],
      "name": "Approval",
      "type": "event"
    },
    {
      "anonymous": false,
      "inputs": [
        {
          "indexed": false,
          "internalType": "uint256",
          "name": "_newCap",
          "type": "uint256"
        }
      ],
      "name": "MaxTotalSupplyUpdated",
      "type": "event"
    },
    {
      "anonymous": false,
      "inputs": [
        {
          "indexed": true,
          "internalType": "address",
          "name": "account",
          "type": "address"
        },
        {
          "indexed": false,
          "internalType": "uint256",
          "name": "cap",
          "type": "uint256"
        }
      ],
      "name": "MinterUpdate",
      "type": "event"
    },
    {
      "anonymous": false,
      "inputs": [
        {
          "indexed": true,
          "internalType": "address",
          "name": "previousOwner",
          "type": "address"
        },
        {
          "indexed": true,
          "internalType": "address",
          "name": "newOwner",
          "type": "address"
        }
      ],
      "name": "OwnershipTransferred",
      "type": "event"
    },
    {
      "anonymous": false,
      "inputs": [
        {
          "indexed": true,
          "internalType": "address",
          "name": "from",
          "type": "address"
        },
        {
          "indexed": true,
          "internalType": "address",
          "name": "to",
          "type": "address"
        },
        {
          "indexed": false,
          "internalType": "uint256",
          "name": "value",
          "type": "uint256"
        }
      ],
      "name": "Transfer",
      "type": "event"
    },
    {
      "inputs": [],
      "name": "MAX_TOTAL_SUPPLY",
      "outputs": [
        {
          "internalType": "uint256",
          "name": "",
          "type": "uint256"
        }
      ],
      "stateMutability": "view",
      "type": "function"
    },
    {
      "inputs": [
        {
          "internalType": "address",
          "name": "owner",
          "type": "address"
        },
        {
          "internalType": "address",
          "name": "spender",
          "type": "address"
        }
      ],
      "name": "allowance",
      "outputs": [
        {
          "internalType": "uint256",
          "name": "",
          "type": "uint256"
        }
      ],
      "stateMutability": "view",
      "type": "function"
    },
    {
      "inputs": [
        {
          "internalType": "address",
          "name": "spender",
          "type": "address"
        },
        {
          "internalType": "uint256",
          "name": "amount",
          "type": "uint256"
        }
      ],
      "name": "approve",
      "outputs": [
        {
          "internalType": "bool",
          "name": "",
          "type": "bool"
        }
      ],
      "stateMutability": "nonpayable",
      "type": "function"
    },
    {
      "inputs": [
        {
          "internalType": "address",
          "name": "account",
          "type": "address"
        }
      ],
      "name": "balanceOf",
      "outputs": [
        {
          "internalType": "uint256",
          "name": "",
          "type": "uint256"
        }
      ],
      "stateMutability": "view",
      "type": "function"
    },
    {
      "inputs": [
        {
          "internalType": "uint256",
          "name": "amount",
          "type": "uint256"
        }
      ],
      "name": "burn",
      "outputs": [],
      "stateMutability": "nonpayable",
      "type": "function"
    },
    {
      "inputs": [
        {
          "internalType": "address",
          "name": "account",
          "type": "address"
        },
        {
          "internalType": "uint256",
          "name": "amount",
          "type": "uint256"
        }
      ],
      "name": "burnFrom",
      "outputs": [],
      "stateMutability": "nonpayable",
      "type": "function"
    },
    {
      "inputs": [],
      "name": "decimals",
      "outputs": [
        {
          "internalType": "uint8",
          "name": "",
          "type": "uint8"
        }
      ],
      "stateMutability": "view",
      "type": "function"
    },
    {
      "inputs": [
        {
          "internalType": "address",
          "name": "spender",
          "type": "address"
        },
        {
          "internalType": "uint256",
          "name": "subtractedValue",
          "type": "uint256"
        }
      ],
      "name": "decreaseAllowance",
      "outputs": [
        {
          "internalType": "bool",
          "name": "",
          "type": "bool"
        }
      ],
      "stateMutability": "nonpayable",
      "type": "function"
    },
    {
      "inputs": [
        {
          "internalType": "address",
          "name": "spender",
          "type": "address"
        },
        {
          "internalType": "uint256",
          "name": "addedValue",
          "type": "uint256"
        }
      ],
      "name": "increaseAllowance",
      "outputs": [
        {
          "internalType": "bool",
          "name": "",
          "type": "bool"
        }
      ],
      "stateMutability": "nonpayable",
      "type": "function"
    },
    {
      "inputs": [
        {
          "internalType": "uint256",
          "name": "_initial",
          "type": "uint256"
        }
      ],
      "name": "initialize",
      "outputs": [],
      "stateMutability": "nonpayable",
      "type": "function"
    },
    {
      "inputs": [
        {
          "internalType": "address",
          "name": "_recipient",
          "type": "address"
        },
        {
          "internalType": "uint256",
          "name": "_amount",
          "type": "uint256"
        }
      ],
      "name": "mint",
      "outputs": [],
      "stateMutability": "nonpayable",
      "type": "function"
    },
    {
      "inputs": [
        {
          "internalType": "address",
          "name": "_recipient",
          "type": "address"
        },
        {
          "internalType": "uint256",
          "name": "_amount",
          "type": "uint256"
        }
      ],
      "name": "mint_natural",
      "outputs": [],
      "stateMutability": "nonpayable",
      "type": "function"
    },
    {
      "inputs": [
        {
          "internalType": "address",
          "name": "",
          "type": "address"
        }
      ],
      "name": "minters",
      "outputs": [
        {
          "internalType": "uint256",
          "name": "",
          "type": "uint256"
        }
      ],
      "stateMutability": "view",
      "type": "function"
    },
    {
      "inputs": [
        {
          "internalType": "address",
          "name": "",
          "type": "address"
        }
      ],
      "name": "minters_minted",
      "outputs": [
        {
          "internalType": "uint256",
          "name": "",
          "type": "uint256"
        }
      ],
      "stateMutability": "view",
      "type": "function"
    },
    {
      "inputs": [],
      "name": "name",
      "outputs": [
        {
          "internalType": "string",
          "name": "",
          "type": "string"
        }
      ],
      "stateMutability": "view",
      "type": "function"
    },
    {
      "inputs": [],
      "name": "owner",
      "outputs": [
        {
          "internalType": "address",
          "name": "",
          "type": "address"
        }
      ],
      "stateMutability": "view",
      "type": "function"
    },
    {
      "inputs": [],
      "name": "renounceOwnership",
      "outputs": [],
      "stateMutability": "nonpayable",
      "type": "function"
    },
    {
      "inputs": [
        {
          "internalType": "uint256",
          "name": "_newCap",
          "type": "uint256"
        }
      ],
      "name": "resetMaxTotalSupply",
      "outputs": [],
      "stateMutability": "nonpayable",
      "type": "function"
    },
    {
      "inputs": [
        {
          "internalType": "address",
          "name": "_account",
          "type": "address"
        },
        {
          "internalType": "uint256",
          "name": "_minterCap",
          "type": "uint256"
        }
      ],
      "name": "setMinter",
      "outputs": [],
      "stateMutability": "nonpayable",
      "type": "function"
    },
    {
      "inputs": [],
      "name": "symbol",
      "outputs": [
        {
          "internalType": "string",
          "name": "",
          "type": "string"
        }
      ],
      "stateMutability": "view",
      "type": "function"
    },
    {
      "inputs": [],
      "name": "totalSupply",
      "outputs": [
        {
          "internalType": "uint256",
          "name": "",
          "type": "uint256"
        }
      ],
      "stateMutability": "view",
      "type": "function"
    },
    {
      "inputs": [
        {
          "internalType": "address",
          "name": "recipient",
          "type": "address"
        },
        {
          "internalType": "uint256",
          "name": "amount",
          "type": "uint256"
        }
      ],
      "name": "transfer",
      "outputs": [
        {
          "internalType": "bool",
          "name": "",
          "type": "bool"
        }
      ],
      "stateMutability": "nonpayable",
      "type": "function"
    },
    {
      "inputs": [
        {
          "internalType": "address",
          "name": "sender",
          "type": "address"
        },
        {
          "internalType": "address",
          "name": "recipient",
          "type": "address"
        },
        {
          "internalType": "uint256",
          "name": "amount",
          "type": "uint256"
        }
      ],
      "name": "transferFrom",
      "outputs": [
        {
          "internalType": "bool",
          "name": "",
          "type": "bool"
        }
      ],
      "stateMutability": "nonpayable",
      "type": "function"
    },
    {
      "inputs": [
        {
          "internalType": "address",
          "name": "newOwner",
          "type": "address"
        }
      ],
      "name": "transferOwnership",
      "outputs": [],
      "stateMutability": "nonpayable",
      "type": "function"
    }
  ],
  "bytecode": "0x60806040526b204fce5e3e250261100000006006553480156200002157600080fd5b50604051620017be380380620017be833981016040819052620000449162000230565b8181620000513362000087565b815162000066906004906020850190620000d7565b5080516200007c906005906020840190620000d7565b5050505050620002ea565b600080546001600160a01b038381166001600160a01b0319831681178455604051919092169283917f8be0079c531659141344cd1fd0a4f28419497f9722a3daafe3b4186f6b6457e09190a35050565b828054620000e59062000297565b90600052602060002090601f01602090048101928262000109576000855562000154565b82601f106200012457805160ff191683800117855562000154565b8280016001018555821562000154579182015b828111156200015457825182559160200191906001019062000137565b506200016292915062000166565b5090565b5b8082111562000162576000815560010162000167565b600082601f8301126200018e578081fd5b81516001600160401b0380821115620001ab57620001ab620002d4565b604051601f8301601f19908116603f01168101908282118183101715620001d657620001d6620002d4565b81604052838152602092508683858801011115620001f2578485fd5b8491505b83821015620002155785820183015181830184015290820190620001f6565b838211156200022657848385830101525b9695505050505050565b6000806040838503121562000243578182fd5b82516001600160401b03808211156200025a578384fd5b62000268868387016200017d565b935060208501519150808211156200027e578283fd5b506200028d858286016200017d565b9150509250929050565b600181811c90821680620002ac57607f821691505b60208210811415620002ce57634e487b7160e01b600052602260045260246000fd5b50919050565b634e487b7160e01b600052604160045260246000fd5b6114c480620002fa6000396000f3fe608060405234801561001057600080fd5b50600436106101585760003560e01c8063715018a6116100c3578063a457c2d71161007c578063a457c2d7146102d6578063a9059cbb146102e9578063dd62ed3e146102fc578063f2fde38b14610335578063f46eccc414610348578063fe4b84df1461036857600080fd5b8063715018a61461026557806379cc67901461026d57806387de8498146102805780638da5cb5b146102a057806395d89b41146102bb5780639ce38998146102c357600080fd5b806333039d3d1161011557806333039d3d146101e757806339509351146101f057806340c10f191461020357806342966c681461021657806360c918851461022957806370a082311461023c57600080fd5b8063039fd87a1461015d57806306fdde0314610172578063095ea7b31461019057806318160ddd146101b357806323b872dd146101c5578063313ce567146101d8575b600080fd5b61017061016b3660046112c1565b61037b565b005b61017a61046c565b6040516101879190611302565b60405180910390f35b6101a361019e3660046112c1565b6104fe565b6040519015158152602001610187565b6003545b604051908152602001610187565b6101a36101d3366004611286565b610514565b60405160128152602001610187565b6101b760065481565b6101a36101fe3660046112c1565b6105be565b6101706102113660046112c1565b6105fa565b6101706102243660046112ea565b6106a4565b6101706102373660046112ea565b6106b1565b6101b761024a36600461123a565b6001600160a01b031660009081526001602052604090205490565b610170610776565b61017061027b3660046112c1565b6107ac565b6101b761028e36600461123a565b60086020526000908152604090205481565b6000546040516001600160a01b039091168152602001610187565b61017a610832565b6101706102d13660046112c1565b610841565b6101a36102e43660046112c1565b61098f565b6101a36102f73660046112c1565b610a28565b6101b761030a366004611254565b6001600160a01b03918216600090815260026020908152604080832093909416825291909152205490565b61017061034336600461123a565b610a35565b6101b761035636600461123a565b60076020526000908152604090205481565b6101706103763660046112ea565b610acd565b336000908152600760205260409020546103d75760405162461bcd60e51b815260206004820152601860248201527713db9b1e481b5a5b9d195c8818d85b881a5b9d195c9858dd60421b60448201526064015b60405180910390fd5b6104126103ec82670de0b6b3a76400006113e3565b60086000335b6001600160a01b0316815260208101919091526040016000205490610b9d565b3360009081526008602090815260408083208490556007909152902054101561044d5760405162461bcd60e51b81526004016103ce90611355565b6104688261046383670de0b6b3a76400006113e3565b610bb0565b5050565b60606004805461047b90611419565b80601f01602080910402602001604051908101604052809291908181526020018280546104a790611419565b80156104f45780601f106104c9576101008083540402835291602001916104f4565b820191906000526020600020905b8154815290600101906020018083116104d757829003601f168201915b5050505050905090565b600061050b338484610c9b565b50600192915050565b6000610521848484610dbf565b6001600160a01b0384166000908152600260209081526040808320338452909152902054828110156105a65760405162461bcd60e51b815260206004820152602860248201527f45524332303a207472616e7366657220616d6f756e74206578636565647320616044820152676c6c6f77616e636560c01b60648201526084016103ce565b6105b38533858403610c9b565b506001949350505050565b3360008181526002602090815260408083206001600160a01b0387168452909152812054909161050b9185906105f59086906113cb565b610c9b565b336000908152600760205260409020546106515760405162461bcd60e51b815260206004820152601860248201527713db9b1e481b5a5b9d195c8818d85b881a5b9d195c9858dd60421b60448201526064016103ce565b61065f8160086000336103f2565b3360009081526008602090815260408083208490556007909152902054101561069a5760405162461bcd60e51b81526004016103ce90611355565b6104688282610bb0565b6106ae3382610f99565b50565b6000546001600160a01b031633146106db5760405162461bcd60e51b81526004016103ce90611396565b60035481101561073b5760405162461bcd60e51b815260206004820152602560248201527f5f6e65774361702069732062656c6f772063757272656e7420746f74616c20736044820152647570706c7960d81b60648201526084016103ce565b60068190556040518181527ff2672935fc79f5237559e2e2999dbe743bf65430894ac2b37666890e7c69e1af9060200160405180910390a150565b6000546001600160a01b031633146107a05760405162461bcd60e51b81526004016103ce90611396565b6107aa60006110f3565b565b60006107b8833361030a565b9050818110156108165760405162461bcd60e51b8152602060048201526024808201527f45524332303a206275726e20616d6f756e74206578636565647320616c6c6f77604482015263616e636560e01b60648201526084016103ce565b6108238333848403610c9b565b61082d8383610f99565b505050565b60606005805461047b90611419565b6000546001600160a01b0316331461086b5760405162461bcd60e51b81526004016103ce90611396565b6001600160a01b0382166108b35760405162461bcd60e51b815260206004820152600f60248201526e696e76616c6964206164647265737360881b60448201526064016103ce565b6001600160a01b0382166000908152600860205260409020548110156109365760405162461bcd60e51b815260206004820152603260248201527f4d696e74657220616c7265616479206d696e7465642061206c6172676572206160448201527106d6f756e74207468616e206e6577206361760741b60648201526084016103ce565b6001600160a01b03821660008181526007602052604090819020839055517f4806dc7228dc0d536104603610b1cf9b1c98f326289316cf3188bf1c6cf3ef5e906109839084815260200190565b60405180910390a25050565b3360009081526002602090815260408083206001600160a01b038616845290915281205482811015610a115760405162461bcd60e51b815260206004820152602560248201527f45524332303a2064656372656173656420616c6c6f77616e63652062656c6f77604482015264207a65726f60d81b60648201526084016103ce565b610a1e3385858403610c9b565b5060019392505050565b600061050b338484610dbf565b6000546001600160a01b03163314610a5f5760405162461bcd60e51b81526004016103ce90611396565b6001600160a01b038116610ac45760405162461bcd60e51b815260206004820152602660248201527f4f776e61626c653a206e6577206f776e657220697320746865207a65726f206160448201526564647265737360d01b60648201526084016103ce565b6106ae816110f3565b600054600160a81b900460ff1680610aef5750600054600160a01b900460ff16155b610b525760405162461bcd60e51b815260206004820152602e60248201527f496e697469616c697a61626c653a20636f6e747261637420697320616c72656160448201526d191e481a5b9a5d1a585b1a5e995960921b60648201526084016103ce565b600054600160a81b900460ff16158015610b7c576000805461ffff60a01b191661010160a01b1790555b610b863383610bb0565b8015610468576000805460ff60a81b191690555050565b6000610ba982846113cb565b9392505050565b6001600160a01b038216610c065760405162461bcd60e51b815260206004820152601f60248201527f45524332303a206d696e7420746f20746865207a65726f20616464726573730060448201526064016103ce565b610c1260008383611143565b8060036000828254610c2491906113cb565b90915550506001600160a01b03821660009081526001602052604081208054839290610c519084906113cb565b90915550506040518181526001600160a01b038316906000907fddf252ad1be2c89b69c2b068fc378daa952ba7f163c4a11628f55a4df523b3ef9060200160405180910390a35050565b6001600160a01b038316610cfd5760405162461bcd60e51b8152602060048201526024808201527f45524332303a20617070726f76652066726f6d20746865207a65726f206164646044820152637265737360e01b60648201526084016103ce565b6001600160a01b038216610d5e5760405162461bcd60e51b815260206004820152602260248201527f45524332303a20617070726f766520746f20746865207a65726f206164647265604482015261737360f01b60648201526084016103ce565b6001600160a01b0383811660008181526002602090815260408083209487168084529482529182902085905590518481527f8c5be1e5ebec7d5bd14f71427d1e84f3dd0314c0f7b2291e5b200ac8c7c3b925910160405180910390a3505050565b6001600160a01b038316610e235760405162461bcd60e51b815260206004820152602560248201527f45524332303a207472616e736665722066726f6d20746865207a65726f206164604482015264647265737360d81b60648201526084016103ce565b6001600160a01b038216610e855760405162461bcd60e51b815260206004820152602360248201527f45524332303a207472616e7366657220746f20746865207a65726f206164647260448201526265737360e81b60648201526084016103ce565b610e90838383611143565b6001600160a01b03831660009081526001602052604090205481811015610f085760405162461bcd60e51b815260206004820152602660248201527f45524332303a207472616e7366657220616d6f756e7420657863656564732062604482015265616c616e636560d01b60648201526084016103ce565b6001600160a01b03808516600090815260016020526040808220858503905591851681529081208054849290610f3f9084906113cb565b92505081905550826001600160a01b0316846001600160a01b03167fddf252ad1be2c89b69c2b068fc378daa952ba7f163c4a11628f55a4df523b3ef84604051610f8b91815260200190565b60405180910390a350505050565b6001600160a01b038216610ff95760405162461bcd60e51b815260206004820152602160248201527f45524332303a206275726e2066726f6d20746865207a65726f206164647265736044820152607360f81b60648201526084016103ce565b61100582600083611143565b6001600160a01b038216600090815260016020526040902054818110156110795760405162461bcd60e51b815260206004820152602260248201527f45524332303a206275726e20616d6f756e7420657863656564732062616c616e604482015261636560f01b60648201526084016103ce565b6001600160a01b03831660009081526001602052604081208383039055600380548492906110a8908490611402565b90915550506040518281526000906001600160a01b038516907fddf252ad1be2c89b69c2b068fc378daa952ba7f163c4a11628f55a4df523b3ef9060200160405180910390a3505050565b600080546001600160a01b038381166001600160a01b0319831681178455604051919092169283917f8be0079c531659141344cd1fd0a4f28419497f9722a3daafe3b4186f6b6457e09190a35050565b6001600160a01b0383166111b5576006546111678261116160035490565b90610b9d565b11156111b55760405162461bcd60e51b815260206004820152601960248201527f4d617820746f74616c20737570706c792065786365656465640000000000000060448201526064016103ce565b6001600160a01b03821661082d576111ea8160405180606001604052806024815260200161146b6024913960065491906111f2565b600655505050565b600081848411156112165760405162461bcd60e51b81526004016103ce9190611302565b505050900390565b80356001600160a01b038116811461123557600080fd5b919050565b60006020828403121561124b578081fd5b610ba98261121e565b60008060408385031215611266578081fd5b61126f8361121e565b915061127d6020840161121e565b90509250929050565b60008060006060848603121561129a578081fd5b6112a38461121e565b92506112b16020850161121e565b9150604084013590509250925092565b600080604083850312156112d3578182fd5b6112dc8361121e565b946020939093013593505050565b6000602082840312156112fb578081fd5b5035919050565b6000602080835283518082850152825b8181101561132e57858101830151858201604001528201611312565b8181111561133f5783604083870101525b50601f01601f1916929092016040019392505050565b60208082526021908201527f4d696e74696e6720616d6f756e742065786365656473206d696e7465722063616040820152600760fc1b606082015260800190565b6020808252818101527f4f776e61626c653a2063616c6c6572206973206e6f7420746865206f776e6572604082015260600190565b600082198211156113de576113de611454565b500190565b60008160001904831182151516156113fd576113fd611454565b500290565b60008282101561141457611414611454565b500390565b600181811c9082168061142d57607f821691505b6020821081141561144e57634e487b7160e01b600052602260045260246000fd5b50919050565b634e487b7160e01b600052601160045260246000fdfe4275726e20616d6f756e742065786365656473206d617820746f74616c20737570706c79a26469706673582212203c9b4dd84fb3e9ceb4a6592b253424dd5bc8eefb5066e58c602df2b5c134634664736f6c63430008040033",
  "linkReferences": {},
  "deployedLinkReferences": {}
}