{
  "_format": "hh-sol-artifact-1",
  "contractName": "FundDistributor",
  "sourceName": "contracts/FundDistributor.sol",
  "abi": [
    {
      "anonymous": false,
      "inputs": [
        {
          "indexed": true,
          "internalType": "uint256",
          "name": "amount",
          "type": "uint256"
        }
      ],
      "name": "FundRequested",
      "type": "event"
    },
    {
      "anonymous": false,
      "inputs": [
        {
          "indexed": true,
          "internalType": "address",
          "name": "previousOwner",
          "type": "address"
        },
        {
          "indexed": true,
          "internalType": "address",
          "name": "newOwner",
          "type": "address"
        }
      ],
      "name": "OwnershipTransferred",
      "type": "event"
    },
    {
      "anonymous": false,
      "inputs": [
        {
          "indexed": true,
          "internalType": "address",
          "name": "requester",
          "type": "address"
        }
      ],
      "name": "RequesterAdded",
      "type": "event"
    },
    {
      "anonymous": false,
      "inputs": [
        {
          "indexed": true,
          "internalType": "address",
          "name": "requester",
          "type": "address"
        }
      ],
      "name": "RequesterRemoved",
      "type": "event"
    },
    {
      "inputs": [
        {
          "internalType": "address",
          "name": "_requester",
          "type": "address"
        }
      ],
      "name": "addRequester",
      "outputs": [],
      "stateMutability": "nonpayable",
      "type": "function"
    },
    {
      "inputs": [
        {
          "internalType": "address",
          "name": "_receiver",
          "type": "address"
        },
        {
          "internalType": "uint256",
          "name": "_amount",
          "type": "uint256"
        }
      ],
      "name": "distributeTo",
      "outputs": [],
      "stateMutability": "nonpayable",
      "type": "function"
    },
    {
      "inputs": [
        {
          "internalType": "address",
          "name": "_reward",
          "type": "address"
        }
      ],
      "name": "initialize",
      "outputs": [],
      "stateMutability": "nonpayable",
      "type": "function"
    },
    {
      "inputs": [],
      "name": "missingDecimals",
      "outputs": [
        {
          "internalType": "uint256",
          "name": "",
          "type": "uint256"
        }
      ],
      "stateMutability": "view",
      "type": "function"
    },
    {
      "inputs": [],
      "name": "owner",
      "outputs": [
        {
          "internalType": "address",
          "name": "",
          "type": "address"
        }
      ],
      "stateMutability": "view",
      "type": "function"
    },
    {
      "inputs": [
        {
          "internalType": "address",
          "name": "_requester",
          "type": "address"
        }
      ],
      "name": "removeRequester",
      "outputs": [],
      "stateMutability": "nonpayable",
      "type": "function"
    },
    {
      "inputs": [],
      "name": "renounceOwnership",
      "outputs": [],
      "stateMutability": "nonpayable",
      "type": "function"
    },
    {
      "inputs": [
        {
          "internalType": "address",
          "name": "",
          "type": "address"
        }
      ],
      "name": "requesters",
      "outputs": [
        {
          "internalType": "bool",
          "name": "",
          "type": "bool"
        }
      ],
      "stateMutability": "view",
      "type": "function"
    },
    {
      "inputs": [],
      "name": "reward",
      "outputs": [
        {
          "internalType": "contract IRewardToken",
          "name": "",
          "type": "address"
        }
      ],
      "stateMutability": "view",
      "type": "function"
    },
    {
      "inputs": [
        {
          "internalType": "address",
          "name": "newOwner",
          "type": "address"
        }
      ],
      "name": "transferOwnership",
      "outputs": [],
      "stateMutability": "nonpayable",
      "type": "function"
    }
  ],
  "bytecode": "0x608060405234801561001057600080fd5b5061001a3361001f565b61006f565b600080546001600160a01b038381166001600160a01b0319831681178455604051919092169283917f8be0079c531659141344cd1fd0a4f28419497f9722a3daafe3b4186f6b6457e09190a35050565b6109538061007e6000396000f3fe608060405234801561001057600080fd5b506004361061009e5760003560e01c8063c4d66de811610066578063c4d66de814610118578063d66e57cd1461012b578063d6f8307f1461013e578063e4d609cc14610171578063f2fde38b1461018457600080fd5b80631107e77c146100a3578063228cb733146100b8578063412831c4146100e8578063715018a6146100ff5780638da5cb5b14610107575b600080fd5b6100b66100b1366004610739565b610197565b005b6001546100cb906001600160a01b031681565b6040516001600160a01b0390911681526020015b60405180910390f35b6100f160025481565b6040519081526020016100df565b6100b6610271565b6000546001600160a01b03166100cb565b6100b6610126366004610739565b6102a7565b6100b6610139366004610753565b61040b565b61016161014c366004610739565b60036020526000908152604090205460ff1681565b60405190151581526020016100df565b6100b661017f366004610739565b61054a565b6100b6610192366004610739565b61061d565b6000546001600160a01b031633146101ca5760405162461bcd60e51b81526004016101c1906107a4565b60405180910390fd5b6001600160a01b03811660009081526003602052604090205460ff166102285760405162461bcd60e51b81526020600482015260136024820152721c995c5d595cdd195c881b9bdd08199bdd5b99606a1b60448201526064016101c1565b6001600160a01b038116600081815260036020526040808220805460ff19169055517ffac6f04e18535b820487cce1312e5a45366b7326f7e956a9c48d70fecdde87619190a250565b6000546001600160a01b0316331461029b5760405162461bcd60e51b81526004016101c1906107a4565b6102a560006106b8565b565b600054600160a81b900460ff16806102c95750600054600160a01b900460ff16155b61032c5760405162461bcd60e51b815260206004820152602e60248201527f496e697469616c697a61626c653a20636f6e747261637420697320616c72656160448201526d191e481a5b9a5d1a585b1a5e995960921b60648201526084016101c1565b600054600160a81b900460ff16158015610356576000805461ffff60a01b191661010160a01b1790555b600180546001600160a01b0319166001600160a01b0384169081179091556040805163313ce56760e01b8152905163313ce56791600480820192602092909190829003018186803b1580156103aa57600080fd5b505afa1580156103be573d6000803e3d6000fd5b505050506040513d601f19601f820116820180604052508101906103e2919061077c565b6103ed9060126108e4565b60ff166002558015610407576000805460ff60a81b191690555b5050565b3360009081526003602052604090205460ff1661046a5760405162461bcd60e51b815260206004820152601e60248201527f4f6e6c7920706f6f6c2063616e2072657175657374207472616e73666572000060448201526064016101c1565b6001600160a01b0382166104b25760405162461bcd60e51b815260206004820152600f60248201526e496e76616c6964206164647265737360881b60448201526064016101c1565b8015610407576001546002546001600160a01b03909116906340c10f199084906104e8906104e190600a61083c565b8590610708565b6040516001600160e01b031960e085901b1681526001600160a01b0390921660048301526024820152604401600060405180830381600087803b15801561052e57600080fd5b505af1158015610542573d6000803e3d6000fd5b505050505050565b6000546001600160a01b031633146105745760405162461bcd60e51b81526004016101c1906107a4565b6001600160a01b03811660009081526003602052604090205460ff16156105d15760405162461bcd60e51b81526020600482015260116024820152701c995c5d595cdd195c88195e1a5cdd1959607a1b60448201526064016101c1565b6001600160a01b038116600081815260036020526040808220805460ff19166001179055517f1616bf4c0898e95cbe6407827ef9ba6f5887a571df69e07eeda76b2b2a4f7daf9190a250565b6000546001600160a01b031633146106475760405162461bcd60e51b81526004016101c1906107a4565b6001600160a01b0381166106ac5760405162461bcd60e51b815260206004820152602660248201527f4f776e61626c653a206e6577206f776e657220697320746865207a65726f206160448201526564647265737360d01b60648201526084016101c1565b6106b5816106b8565b50565b600080546001600160a01b038381166001600160a01b0319831681178455604051919092169283917f8be0079c531659141344cd1fd0a4f28419497f9722a3daafe3b4186f6b6457e09190a35050565b600061071482846107d9565b90505b92915050565b80356001600160a01b038116811461073457600080fd5b919050565b60006020828403121561074a578081fd5b6107148261071d565b60008060408385031215610765578081fd5b61076e8361071d565b946020939093013593505050565b60006020828403121561078d578081fd5b815160ff8116811461079d578182fd5b9392505050565b6020808252818101527f4f776e61626c653a2063616c6c6572206973206e6f7420746865206f776e6572604082015260600190565b6000826107f457634e487b7160e01b81526012600452602481fd5b500490565b600181815b8085111561083457816000190482111561081a5761081a610907565b8085161561082757918102915b93841c93908002906107fe565b509250929050565b6000610714838360008261085257506001610717565b8161085f57506000610717565b8160018114610875576002811461087f5761089b565b6001915050610717565b60ff84111561089057610890610907565b50506001821b610717565b5060208310610133831016604e8410600b84101617156108be575081810a610717565b6108c883836107f9565b80600019048211156108dc576108dc610907565b029392505050565b600060ff821660ff8416808210156108fe576108fe610907565b90039392505050565b634e487b7160e01b600052601160045260246000fdfea264697066735822122006fa36dc31528f77b2a63df0bcc8ef769f43b99f072e9624b92680dbc14a80a564736f6c63430008040033",
  "linkReferences": {},
  "deployedLinkReferences": {}
}