{
  "_format": "hh-sol-artifact-1",
  "contractName": "RedRequiem",
  "sourceName": "contracts/RedRequiem.sol",
  "abi": [
    {
      "inputs": [
        {
          "internalType": "string",
          "name": "_name",
          "type": "string"
        },
        {
          "internalType": "string",
          "name": "_symbol",
          "type": "string"
        },
        {
          "internalType": "address",
          "name": "_lockedToken",
          "type": "address"
        },
        {
          "internalType": "uint256",
          "name": "_minLockedAmount",
          "type": "uint256"
        }
      ],
      "stateMutability": "nonpayable",
      "type": "constructor"
    },
    {
      "anonymous": false,
      "inputs": [
        {
          "indexed": true,
          "internalType": "address",
          "name": "owner",
          "type": "address"
        },
        {
          "indexed": true,
          "internalType": "address",
          "name": "spender",
          "type": "address"
        },
        {
          "indexed": false,
          "internalType": "uint256",
          "name": "value",
          "type": "uint256"
        }
      ],
      "name": "Approval",
      "type": "event"
    },
    {
      "anonymous": false,
      "inputs": [
        {
          "indexed": true,
          "internalType": "address",
          "name": "provider",
          "type": "address"
        },
        {
          "indexed": false,
          "internalType": "uint256",
          "name": "value",
          "type": "uint256"
        },
        {
          "indexed": false,
          "internalType": "uint256",
          "name": "locktime",
          "type": "uint256"
        },
        {
          "indexed": false,
          "internalType": "uint256",
          "name": "timestamp",
          "type": "uint256"
        }
      ],
      "name": "Deposit",
      "type": "event"
    },
    {
      "anonymous": false,
      "inputs": [
        {
          "indexed": true,
          "internalType": "uint256",
          "name": "penalty",
          "type": "uint256"
        }
      ],
      "name": "EarlyWithdrawPenaltySet",
      "type": "event"
    },
    {
      "anonymous": false,
      "inputs": [
        {
          "indexed": true,
          "internalType": "uint256",
          "name": "amount",
          "type": "uint256"
        }
      ],
      "name": "MinLockedAmountSet",
      "type": "event"
    },
    {
      "anonymous": false,
      "inputs": [
        {
          "indexed": true,
          "internalType": "address",
          "name": "previousOwner",
          "type": "address"
        },
        {
          "indexed": true,
          "internalType": "address",
          "name": "newOwner",
          "type": "address"
        }
      ],
      "name": "OwnershipTransferred",
      "type": "event"
    },
    {
      "anonymous": false,
      "inputs": [
        {
          "indexed": true,
          "internalType": "address",
          "name": "addr",
          "type": "address"
        }
      ],
      "name": "PenaltyCollectorSet",
      "type": "event"
    },
    {
      "anonymous": false,
      "inputs": [
        {
          "indexed": true,
          "internalType": "address",
          "name": "from",
          "type": "address"
        },
        {
          "indexed": true,
          "internalType": "address",
          "name": "to",
          "type": "address"
        },
        {
          "indexed": false,
          "internalType": "uint256",
          "name": "value",
          "type": "uint256"
        }
      ],
      "name": "Transfer",
      "type": "event"
    },
    {
      "anonymous": false,
      "inputs": [
        {
          "indexed": true,
          "internalType": "address",
          "name": "provider",
          "type": "address"
        },
        {
          "indexed": false,
          "internalType": "uint256",
          "name": "value",
          "type": "uint256"
        },
        {
          "indexed": false,
          "internalType": "uint256",
          "name": "timestamp",
          "type": "uint256"
        }
      ],
      "name": "Withdraw",
      "type": "event"
    },
    {
      "inputs": [],
      "name": "MAXDAYS",
      "outputs": [
        {
          "internalType": "uint256",
          "name": "",
          "type": "uint256"
        }
      ],
      "stateMutability": "view",
      "type": "function"
    },
    {
      "inputs": [],
      "name": "MAXTIME",
      "outputs": [
        {
          "internalType": "uint256",
          "name": "",
          "type": "uint256"
        }
      ],
      "stateMutability": "view",
      "type": "function"
    },
    {
      "inputs": [],
      "name": "MAX_WITHDRAWAL_PENALTY",
      "outputs": [
        {
          "internalType": "uint256",
          "name": "",
          "type": "uint256"
        }
      ],
      "stateMutability": "view",
      "type": "function"
    },
    {
      "inputs": [],
      "name": "MINDAYS",
      "outputs": [
        {
          "internalType": "uint256",
          "name": "",
          "type": "uint256"
        }
      ],
      "stateMutability": "view",
      "type": "function"
    },
    {
      "inputs": [],
      "name": "PRECISION",
      "outputs": [
        {
          "internalType": "uint256",
          "name": "",
          "type": "uint256"
        }
      ],
      "stateMutability": "view",
      "type": "function"
    },
    {
      "inputs": [
        {
          "internalType": "address",
          "name": "owner",
          "type": "address"
        },
        {
          "internalType": "address",
          "name": "spender",
          "type": "address"
        }
      ],
      "name": "allowance",
      "outputs": [
        {
          "internalType": "uint256",
          "name": "",
          "type": "uint256"
        }
      ],
      "stateMutability": "view",
      "type": "function"
    },
    {
      "inputs": [
        {
          "internalType": "address",
          "name": "spender",
          "type": "address"
        },
        {
          "internalType": "uint256",
          "name": "amount",
          "type": "uint256"
        }
      ],
      "name": "approve",
      "outputs": [
        {
          "internalType": "bool",
          "name": "",
          "type": "bool"
        }
      ],
      "stateMutability": "nonpayable",
      "type": "function"
    },
    {
      "inputs": [
        {
          "internalType": "address",
          "name": "account",
          "type": "address"
        }
      ],
      "name": "balanceOf",
      "outputs": [
        {
          "internalType": "uint256",
          "name": "",
          "type": "uint256"
        }
      ],
      "stateMutability": "view",
      "type": "function"
    },
    {
      "inputs": [
        {
          "internalType": "uint256",
          "name": "amount",
          "type": "uint256"
        }
      ],
      "name": "burn",
      "outputs": [],
      "stateMutability": "nonpayable",
      "type": "function"
    },
    {
      "inputs": [
        {
          "internalType": "address",
          "name": "account",
          "type": "address"
        },
        {
          "internalType": "uint256",
          "name": "amount",
          "type": "uint256"
        }
      ],
      "name": "burnFrom",
      "outputs": [],
      "stateMutability": "nonpayable",
      "type": "function"
    },
    {
      "inputs": [
        {
          "internalType": "uint256",
          "name": "_value",
          "type": "uint256"
        },
        {
          "internalType": "uint256",
          "name": "_days",
          "type": "uint256"
        }
      ],
      "name": "create_lock",
      "outputs": [],
      "stateMutability": "nonpayable",
      "type": "function"
    },
    {
      "inputs": [],
      "name": "decimals",
      "outputs": [
        {
          "internalType": "uint8",
          "name": "",
          "type": "uint8"
        }
      ],
      "stateMutability": "view",
      "type": "function"
    },
    {
      "inputs": [
        {
          "internalType": "address",
          "name": "spender",
          "type": "address"
        },
        {
          "internalType": "uint256",
          "name": "subtractedValue",
          "type": "uint256"
        }
      ],
      "name": "decreaseAllowance",
      "outputs": [
        {
          "internalType": "bool",
          "name": "",
          "type": "bool"
        }
      ],
      "stateMutability": "nonpayable",
      "type": "function"
    },
    {
      "inputs": [
        {
          "internalType": "address",
          "name": "_addr",
          "type": "address"
        },
        {
          "internalType": "uint256",
          "name": "_value",
          "type": "uint256"
        }
      ],
      "name": "deposit_for",
      "outputs": [],
      "stateMutability": "nonpayable",
      "type": "function"
    },
    {
      "inputs": [],
      "name": "earlyWithdrawPenaltyRate",
      "outputs": [
        {
          "internalType": "uint256",
          "name": "",
          "type": "uint256"
        }
      ],
      "stateMutability": "view",
      "type": "function"
    },
    {
      "inputs": [],
      "name": "emergencyWithdraw",
      "outputs": [],
      "stateMutability": "nonpayable",
      "type": "function"
    },
    {
      "inputs": [
        {
          "internalType": "address",
          "name": "spender",
          "type": "address"
        },
        {
          "internalType": "uint256",
          "name": "addedValue",
          "type": "uint256"
        }
      ],
      "name": "increaseAllowance",
      "outputs": [
        {
          "internalType": "bool",
          "name": "",
          "type": "bool"
        }
      ],
      "stateMutability": "nonpayable",
      "type": "function"
    },
    {
      "inputs": [
        {
          "internalType": "uint256",
          "name": "_value",
          "type": "uint256"
        }
      ],
      "name": "increase_amount",
      "outputs": [],
      "stateMutability": "nonpayable",
      "type": "function"
    },
    {
      "inputs": [
        {
          "internalType": "uint256",
          "name": "_days",
          "type": "uint256"
        }
      ],
      "name": "increase_unlock_time",
      "outputs": [],
      "stateMutability": "nonpayable",
      "type": "function"
    },
    {
      "inputs": [
        {
          "internalType": "address",
          "name": "",
          "type": "address"
        }
      ],
      "name": "locked",
      "outputs": [
        {
          "internalType": "uint256",
          "name": "amount",
          "type": "uint256"
        },
        {
          "internalType": "uint256",
          "name": "end",
          "type": "uint256"
        }
      ],
      "stateMutability": "view",
      "type": "function"
    },
    {
      "inputs": [],
      "name": "lockedToken",
      "outputs": [
        {
          "internalType": "address",
          "name": "",
          "type": "address"
        }
      ],
      "stateMutability": "view",
      "type": "function"
    },
    {
      "inputs": [
        {
          "internalType": "address",
          "name": "_addr",
          "type": "address"
        }
      ],
      "name": "locked__end",
      "outputs": [
        {
          "internalType": "uint256",
          "name": "",
          "type": "uint256"
        }
      ],
      "stateMutability": "view",
      "type": "function"
    },
    {
      "inputs": [
        {
          "internalType": "address",
          "name": "_addr",
          "type": "address"
        }
      ],
      "name": "locked__of",
      "outputs": [
        {
          "internalType": "uint256",
          "name": "",
          "type": "uint256"
        }
      ],
      "stateMutability": "view",
      "type": "function"
    },
    {
      "inputs": [],
      "name": "minLockedAmount",
      "outputs": [
        {
          "internalType": "uint256",
          "name": "",
          "type": "uint256"
        }
      ],
      "stateMutability": "view",
      "type": "function"
    },
    {
      "inputs": [
        {
          "internalType": "address",
          "name": "",
          "type": "address"
        }
      ],
      "name": "mintedForLock",
      "outputs": [
        {
          "internalType": "uint256",
          "name": "",
          "type": "uint256"
        }
      ],
      "stateMutability": "view",
      "type": "function"
    },
    {
      "inputs": [],
      "name": "name",
      "outputs": [
        {
          "internalType": "string",
          "name": "",
          "type": "string"
        }
      ],
      "stateMutability": "view",
      "type": "function"
    },
    {
      "inputs": [],
      "name": "owner",
      "outputs": [
        {
          "internalType": "address",
          "name": "",
          "type": "address"
        }
      ],
      "stateMutability": "view",
      "type": "function"
    },
    {
      "inputs": [],
      "name": "penaltyCollector",
      "outputs": [
        {
          "internalType": "address",
          "name": "",
          "type": "address"
        }
      ],
      "stateMutability": "view",
      "type": "function"
    },
    {
      "inputs": [],
      "name": "renounceOwnership",
      "outputs": [],
      "stateMutability": "nonpayable",
      "type": "function"
    },
    {
      "inputs": [
        {
          "internalType": "uint256",
          "name": "_earlyWithdrawPenaltyRate",
          "type": "uint256"
        }
      ],
      "name": "setEarlyWithdrawPenaltyRate",
      "outputs": [],
      "stateMutability": "nonpayable",
      "type": "function"
    },
    {
      "inputs": [
        {
          "internalType": "uint256",
          "name": "_minLockedAmount",
          "type": "uint256"
        }
      ],
      "name": "setMinLockedAmount",
      "outputs": [],
      "stateMutability": "nonpayable",
      "type": "function"
    },
    {
      "inputs": [
        {
          "internalType": "address",
          "name": "_addr",
          "type": "address"
        }
      ],
      "name": "setPenaltyCollector",
      "outputs": [],
      "stateMutability": "nonpayable",
      "type": "function"
    },
    {
      "inputs": [],
      "name": "symbol",
      "outputs": [
        {
          "internalType": "string",
          "name": "",
          "type": "string"
        }
      ],
      "stateMutability": "view",
      "type": "function"
    },
    {
      "inputs": [],
      "name": "totalSupply",
      "outputs": [
        {
          "internalType": "uint256",
          "name": "",
          "type": "uint256"
        }
      ],
      "stateMutability": "view",
      "type": "function"
    },
    {
      "inputs": [
        {
          "internalType": "address",
          "name": "recipient",
          "type": "address"
        },
        {
          "internalType": "uint256",
          "name": "amount",
          "type": "uint256"
        }
      ],
      "name": "transfer",
      "outputs": [
        {
          "internalType": "bool",
          "name": "",
          "type": "bool"
        }
      ],
      "stateMutability": "nonpayable",
      "type": "function"
    },
    {
      "inputs": [
        {
          "internalType": "address",
          "name": "sender",
          "type": "address"
        },
        {
          "internalType": "address",
          "name": "recipient",
          "type": "address"
        },
        {
          "internalType": "uint256",
          "name": "amount",
          "type": "uint256"
        }
      ],
      "name": "transferFrom",
      "outputs": [
        {
          "internalType": "bool",
          "name": "",
          "type": "bool"
        }
      ],
      "stateMutability": "nonpayable",
      "type": "function"
    },
    {
      "inputs": [
        {
          "internalType": "address",
          "name": "newOwner",
          "type": "address"
        }
      ],
      "name": "transferOwnership",
      "outputs": [],
      "stateMutability": "nonpayable",
      "type": "function"
    },
    {
      "inputs": [
        {
          "internalType": "uint256",
          "name": "_value",
          "type": "uint256"
        },
        {
          "internalType": "uint256",
          "name": "_days",
          "type": "uint256"
        }
      ],
      "name": "voting_power_locked_days",
      "outputs": [
        {
          "internalType": "uint256",
          "name": "",
          "type": "uint256"
        }
      ],
      "stateMutability": "pure",
      "type": "function"
    },
    {
      "inputs": [
        {
          "internalType": "uint256",
          "name": "_value",
          "type": "uint256"
        },
        {
          "internalType": "uint256",
          "name": "_unlock_time",
          "type": "uint256"
        }
      ],
      "name": "voting_power_unlock_time",
      "outputs": [
        {
          "internalType": "uint256",
          "name": "",
          "type": "uint256"
        }
      ],
      "stateMutability": "view",
      "type": "function"
    },
    {
      "inputs": [],
      "name": "withdraw",
      "outputs": [],
      "stateMutability": "nonpayable",
      "type": "function"
    }
  ],
  "bytecode": "0x60806040523480156200001157600080fd5b50604051620021ef380380620021ef833981016040819052620000349162000266565b8351849084906200004d9060039060208501906200010d565b508051620000639060049060208401906200010d565b505050620000806200007a620000b760201b60201c565b620000bb565b600780546001600160a01b0319166001600160a01b0393909316929092179091556009555050617530600a55600160065562000348565b3390565b600580546001600160a01b038381166001600160a01b0319831681179093556040519116919082907f8be0079c531659141344cd1fd0a4f28419497f9722a3daafe3b4186f6b6457e090600090a35050565b8280546200011b90620002f5565b90600052602060002090601f0160209004810192826200013f57600085556200018a565b82601f106200015a57805160ff19168380011785556200018a565b828001600101855582156200018a579182015b828111156200018a5782518255916020019190600101906200016d565b50620001989291506200019c565b5090565b5b808211156200019857600081556001016200019d565b600082601f830112620001c4578081fd5b81516001600160401b0380821115620001e157620001e162000332565b604051601f8301601f19908116603f011681019082821181831017156200020c576200020c62000332565b8160405283815260209250868385880101111562000228578485fd5b8491505b838210156200024b57858201830151818301840152908201906200022c565b838211156200025c57848385830101525b9695505050505050565b600080600080608085870312156200027c578384fd5b84516001600160401b038082111562000293578586fd5b620002a188838901620001b3565b95506020870151915080821115620002b7578485fd5b50620002c687828801620001b3565b604087015190945090506001600160a01b0381168114620002e5578283fd5b6060959095015193969295505050565b600181811c908216806200030a57607f821691505b602082108114156200032c57634e487b7160e01b600052602260045260246000fd5b50919050565b634e487b7160e01b600052604160045260246000fd5b611e9780620003586000396000f3fe608060405234801561001057600080fd5b50600436106102485760003560e01c806370a082311161013b578063aaf5eb68116100b8578063db2e21bc1161007c578063db2e21bc14610532578063dd62ed3e1461053a578063ee00ef3a14610573578063eff7a6121461057b578063f2fde38b1461058e57600080fd5b8063aaf5eb68146104a4578063adc63589146104ae578063ae6ef65f146104da578063cbf9fe5f146104e3578063d08a12ff1461051f57600080fd5b806395d89b41116100ff57806395d89b411461045a578063a25b39b714610462578063a457c2d71461046b578063a8a4a3761461047e578063a9059cbb1461049157600080fd5b806370a08231146103f2578063715018a61461041b57806373426cff1461042357806379cc6790146104365780638da5cb5b1461044957600080fd5b8063308097b2116101c95780633ccfd60b1161018d5780633ccfd60b1461039e57806342966c68146103a65780634957677c146103b95780635b7d8f05146103cc57806365fc3873146103df57600080fd5b8063308097b214610341578063313ce5671461035457806338b4321b1461036357806339509351146103765780633a46273e1461038957600080fd5b8063113f665311610210578063113f6653146102f45780631767c4331461031457806318160ddd1461031d5780632060176b1461032557806323b872dd1461032e57600080fd5b80630193512b1461024d57806306fdde0314610289578063095ea7b31461029e5780630f45cc81146102c15780630f51c09c146102ec575b600080fd5b61027661025b366004611b9b565b6001600160a01b03166000908152600b602052604090205490565b6040519081526020015b60405180910390f35b6102916105a1565b6040516102809190611cc0565b6102b16102ac366004611c22565b610633565b6040519015158152602001610280565b6007546102d4906001600160a01b031681565b6040516001600160a01b039091168152602001610280565b610276600781565b610276610302366004611b9b565b600c6020526000908152604090205481565b61027661044781565b600254610276565b61027661c35081565b6102b161033c366004611be7565b61064a565b6008546102d4906001600160a01b031681565b60405160128152602001610280565b610276610371366004611c83565b6106fb565b6102b1610384366004611c22565b610768565b61039c610397366004611c22565b6107a4565b005b61039c6107d6565b61039c6103b4366004611c6b565b610933565b61039c6103c7366004611c6b565b610940565b61039c6103da366004611b9b565b61096e565b61039c6103ed366004611c83565b6109e2565b610276610400366004611b9b565b6001600160a01b031660009081526020819052604090205490565b61039c610b0f565b610276610431366004611c83565b610b45565b61039c610444366004611c22565b610b6e565b6005546001600160a01b03166102d4565b610291610bf4565b61027660095481565b6102b1610479366004611c22565b610c03565b61039c61048c366004611c6b565b610c9c565b6102b161049f366004611c22565b610d4b565b610276620186a081565b6102766104bc366004611b9b565b6001600160a01b03166000908152600b602052604090206001015490565b610276600a5481565b61050a6104f1366004611b9b565b600b602052600090815260409020805460019091015482565b60408051928352602083019190915201610280565b61039c61052d366004611c6b565b610d58565b61039c610db5565b610276610548366004611bb5565b6001600160a01b03918216600090815260016020908152604080832093909416825291909152205490565b610276610e89565b61039c610589366004611c6b565b610e9b565b61039c61059c366004611b9b565b610f4a565b6060600380546105b090611e10565b80601f01602080910402602001604051908101604052809291908181526020018280546105dc90611e10565b80156106295780601f106105fe57610100808354040283529160200191610629565b820191906000526020600020905b81548152906001019060200180831161060c57829003601f168201915b5050505050905090565b6000610640338484610fe2565b5060015b92915050565b6000610657848484611106565b6001600160a01b0384166000908152600160209081526040808320338452909152902054828110156106e15760405162461bcd60e51b815260206004820152602860248201527f45524332303a207472616e7366657220616d6f756e74206578636565647320616044820152676c6c6f77616e636560c01b60648201526084015b60405180910390fd5b6106ee8533858403610fe2565b60019150505b9392505050565b60004280831161070f576000915050610644565b600061071b8285611dcd565b905061072c61044762015180611dae565b811061073c578492505050610644565b61074b61044762015180611dae565b6107558287611dae565b61075f9190611d8e565b95945050505050565b3360008181526001602090815260408083206001600160a01b0387168452909152812054909161064091859061079f908690611d76565b610fe2565b6009548110156107c65760405162461bcd60e51b81526004016106d890611d28565b6107d2828260006112d6565b5050565b6006546001146107f85760405162461bcd60e51b81526004016106d890611d56565b60006006819055338152600b60205260409020805442906108515760405162461bcd60e51b81526020600482015260136024820152724e6f7468696e6720746f20776974686472617760681b60448201526064016106d8565b816001015481101561089e5760405162461bcd60e51b8152602060048201526016602482015275546865206c6f636b206469646e27742065787069726560501b60448201526064016106d8565b815460006001840181905583556108c5335b336000908152600c602052604090205461158c565b336000818152600c60205260408120556007546108ee916001600160a01b0390911690836116da565b604080518281526020810184905233917ff279e6a1f5e320cca91135676d9cb6e44ca8a08c0b88342bcdb1144f6511b568910160405180910390a25050600160065550565b61093d338261158c565b50565b6009548110156109625760405162461bcd60e51b81526004016106d890611d28565b61093d338260006112d6565b6005546001600160a01b031633146109985760405162461bcd60e51b81526004016106d890611cf3565b600880546001600160a01b0319166001600160a01b0383169081179091556040517f2541601c97bce42b47813f2be715ba4eb0a571f2aafaf35cda2054137d9a79af90600090a250565b600954821015610a045760405162461bcd60e51b81526004016106d890611d28565b336000908152600b602052604090205415610a615760405162461bcd60e51b815260206004820152601960248201527f5769746864726177206f6c6420746f6b656e732066697273740000000000000060448201526064016106d8565b6007811015610ab25760405162461bcd60e51b815260206004820152601d60248201527f566f74696e67206c6f636b2063616e20626520372064617973206d696e00000060448201526064016106d8565b610447811115610b045760405162461bcd60e51b815260206004820152601e60248201527f566f74696e67206c6f636b2063616e2062652034207965617273206d6178000060448201526064016106d8565b6107d23383836112d6565b6005546001600160a01b03163314610b395760405162461bcd60e51b81526004016106d890611cf3565b610b43600061173d565b565b60006104478210610b57575081610644565b610447610b648385611dae565b6106f49190611d8e565b6000610b7a8333610548565b905081811015610bd85760405162461bcd60e51b8152602060048201526024808201527f45524332303a206275726e20616d6f756e74206578636565647320616c6c6f77604482015263616e636560e01b60648201526084016106d8565b610be58333848403610fe2565b610bef838361158c565b505050565b6060600480546105b090611e10565b3360009081526001602090815260408083206001600160a01b038616845290915281205482811015610c855760405162461bcd60e51b815260206004820152602560248201527f45524332303a2064656372656173656420616c6c6f77616e63652062656c6f77604482015264207a65726f60d81b60648201526084016106d8565b610c923385858403610fe2565b5060019392505050565b6005546001600160a01b03163314610cc65760405162461bcd60e51b81526004016106d890611cf3565b61c350811115610d185760405162461bcd60e51b815260206004820152601e60248201527f7769746864726177616c2070656e616c747920697320746f6f2068696768000060448201526064016106d8565b600a81905560405181907fa7d10353d34f5fe96bad91fa358f55fbea8ad6ee0d30924022d2b58e77f476e390600090a250565b6000610640338484611106565b6005546001600160a01b03163314610d825760405162461bcd60e51b81526004016106d890611cf3565b600981905560405181907f9a8dc7fb9d13b0f5acaf673226d570d31ec15d8a813fceced1eb36ad11afebc590600090a250565b600654600114610dd75760405162461bcd60e51b81526004016106d890611d56565b60006006819055338152600b6020526040902080544290610e305760405162461bcd60e51b81526020600482015260136024820152724e6f7468696e6720746f20776974686472617760681b60448201526064016106d8565b81546001830154821015610e75576000620186a0600a5483610e529190611dae565b610e5c9190611d8e565b9050610e678161178f565b610e718183611dcd565b9150505b60006001840181905583556108c5336108b0565b610e9861044762015180611dae565b81565b6007811015610eec5760405162461bcd60e51b815260206004820152601d60248201527f566f74696e67206c6f636b2063616e20626520372064617973206d696e00000060448201526064016106d8565b610447811115610f3e5760405162461bcd60e51b815260206004820152601e60248201527f566f74696e67206c6f636b2063616e2062652034207965617273206d6178000060448201526064016106d8565b61093d336000836112d6565b6005546001600160a01b03163314610f745760405162461bcd60e51b81526004016106d890611cf3565b6001600160a01b038116610fd95760405162461bcd60e51b815260206004820152602660248201527f4f776e61626c653a206e6577206f776e657220697320746865207a65726f206160448201526564647265737360d01b60648201526084016106d8565b61093d8161173d565b6001600160a01b0383166110445760405162461bcd60e51b8152602060048201526024808201527f45524332303a20617070726f76652066726f6d20746865207a65726f206164646044820152637265737360e01b60648201526084016106d8565b6001600160a01b0382166110a55760405162461bcd60e51b815260206004820152602260248201527f45524332303a20617070726f766520746f20746865207a65726f206164647265604482015261737360f01b60648201526084016106d8565b6001600160a01b0383811660008181526001602090815260408083209487168084529482529182902085905590518481527f8c5be1e5ebec7d5bd14f71427d1e84f3dd0314c0f7b2291e5b200ac8c7c3b925910160405180910390a3505050565b6001600160a01b03831661116a5760405162461bcd60e51b815260206004820152602560248201527f45524332303a207472616e736665722066726f6d20746865207a65726f206164604482015264647265737360d81b60648201526084016106d8565b6001600160a01b0382166111cc5760405162461bcd60e51b815260206004820152602360248201527f45524332303a207472616e7366657220746f20746865207a65726f206164647260448201526265737360e81b60648201526084016106d8565b6001600160a01b038316600090815260208190526040902054818110156112445760405162461bcd60e51b815260206004820152602660248201527f45524332303a207472616e7366657220616d6f756e7420657863656564732062604482015265616c616e636560d01b60648201526084016106d8565b6001600160a01b0380851660009081526020819052604080822085850390559185168152908120805484929061127b908490611d76565b92505081905550826001600160a01b0316846001600160a01b03167fddf252ad1be2c89b69c2b068fc378daa952ba7f163c4a11628f55a4df523b3ef846040516112c791815260200190565b60405180910390a35b50505050565b6006546001146112f85760405162461bcd60e51b81526004016106d890611d56565b600060068190556001600160a01b0384168152600b60205260408120805460018201549192429290826113555761132f8787610b45565b87865590506113418662015180611dae565b61134b9085611d76565b6001860155611490565b856113775761136487836106fb565b90506113708784611d76565b8555611490565b86156113eb5760405162461bcd60e51b815260206004820152603760248201527f43616e6e6f7420696e63726561736520616d6f756e7420616e6420657874656e60448201527f64206c6f636b20696e207468652073616d652074696d6500000000000000000060648201526084016106d8565b6113f58387610b45565b90506114048662015180611dae565b61140e9083611d76565b600186015561142261044762015180611dae565b8486600101546114329190611dcd565b11156114905760405162461bcd60e51b815260206004820152602760248201527f43616e6e6f7420657874656e64206c6f636b20746f206d6f7265207468616e206044820152663420796561727360c81b60648201526084016106d8565b600081116114d55760405162461bcd60e51b81526020600482015260126024820152714e6f2062656e6566697420746f206c6f636b60701b60448201526064016106d8565b86156114f3576114f3336007546001600160a01b031690308a61181e565b6114fd8882611856565b6001600160a01b0388166000908152600c602052604081208054839290611525908490611d76565b90915550508454600186015460408051928352602083019190915281018590526001600160a01b038916907f36af321ec8d3c75236829c5317affd40ddb308863a1236d2d277a4025cccee1e9060600160405180910390a250506001600655505050505050565b6001600160a01b0382166115ec5760405162461bcd60e51b815260206004820152602160248201527f45524332303a206275726e2066726f6d20746865207a65726f206164647265736044820152607360f81b60648201526084016106d8565b6001600160a01b038216600090815260208190526040902054818110156116605760405162461bcd60e51b815260206004820152602260248201527f45524332303a206275726e20616d6f756e7420657863656564732062616c616e604482015261636560f01b60648201526084016106d8565b6001600160a01b038316600090815260208190526040812083830390556002805484929061168f908490611dcd565b90915550506040518281526000906001600160a01b038516907fddf252ad1be2c89b69c2b068fc378daa952ba7f163c4a11628f55a4df523b3ef9060200160405180910390a3505050565b6040516001600160a01b038316602482015260448101829052610bef90849063a9059cbb60e01b906064015b60408051601f198184030181529190526020810180516001600160e01b03166001600160e01b031990931692909217909152611935565b600580546001600160a01b038381166001600160a01b0319831681179093556040519116919082907f8be0079c531659141344cd1fd0a4f28419497f9722a3daafe3b4186f6b6457e090600090a35050565b6008546001600160a01b0316156117bd5760085460075461093d916001600160a01b039182169116836116da565b600754604051630852cd8d60e31b8152600481018390526001600160a01b03909116906342966c6890602401600060405180830381600087803b15801561180357600080fd5b505af1158015611817573d6000803e3d6000fd5b5050505050565b6040516001600160a01b03808516602483015283166044820152606481018290526112d09085906323b872dd60e01b90608401611706565b6001600160a01b0382166118ac5760405162461bcd60e51b815260206004820152601f60248201527f45524332303a206d696e7420746f20746865207a65726f20616464726573730060448201526064016106d8565b80600260008282546118be9190611d76565b90915550506001600160a01b038216600090815260208190526040812080548392906118eb908490611d76565b90915550506040518181526001600160a01b038316906000907fddf252ad1be2c89b69c2b068fc378daa952ba7f163c4a11628f55a4df523b3ef9060200160405180910390a35050565b600061198a826040518060400160405280602081526020017f5361666545524332303a206c6f772d6c6576656c2063616c6c206661696c6564815250856001600160a01b0316611a079092919063ffffffff16565b805190915015610bef57808060200190518101906119a89190611c4b565b610bef5760405162461bcd60e51b815260206004820152602a60248201527f5361666545524332303a204552433230206f7065726174696f6e20646964206e6044820152691bdd081cdd58d8d9595960b21b60648201526084016106d8565b6060611a168484600085611a1e565b949350505050565b606082471015611a7f5760405162461bcd60e51b815260206004820152602660248201527f416464726573733a20696e73756666696369656e742062616c616e636520666f6044820152651c8818d85b1b60d21b60648201526084016106d8565b843b611acd5760405162461bcd60e51b815260206004820152601d60248201527f416464726573733a2063616c6c20746f206e6f6e2d636f6e747261637400000060448201526064016106d8565b600080866001600160a01b03168587604051611ae99190611ca4565b60006040518083038185875af1925050503d8060008114611b26576040519150601f19603f3d011682016040523d82523d6000602084013e611b2b565b606091505b5091509150611b3b828286611b46565b979650505050505050565b60608315611b555750816106f4565b825115611b655782518084602001fd5b8160405162461bcd60e51b81526004016106d89190611cc0565b80356001600160a01b0381168114611b9657600080fd5b919050565b600060208284031215611bac578081fd5b6106f482611b7f565b60008060408385031215611bc7578081fd5b611bd083611b7f565b9150611bde60208401611b7f565b90509250929050565b600080600060608486031215611bfb578081fd5b611c0484611b7f565b9250611c1260208501611b7f565b9150604084013590509250925092565b60008060408385031215611c34578182fd5b611c3d83611b7f565b946020939093013593505050565b600060208284031215611c5c578081fd5b815180151581146106f4578182fd5b600060208284031215611c7c578081fd5b5035919050565b60008060408385031215611c95578182fd5b50508035926020909101359150565b60008251611cb6818460208701611de4565b9190910192915050565b6020815260008251806020840152611cdf816040850160208701611de4565b601f01601f19169190910160400192915050565b6020808252818101527f4f776e61626c653a2063616c6c6572206973206e6f7420746865206f776e6572604082015260600190565b6020808252601490820152731b195cdcc81d1a185b881b5a5b88185b5bdd5b9d60621b604082015260600190565b6020808252600690820152651313d0d2d15160d21b604082015260600190565b60008219821115611d8957611d89611e4b565b500190565b600082611da957634e487b7160e01b81526012600452602481fd5b500490565b6000816000190483118215151615611dc857611dc8611e4b565b500290565b600082821015611ddf57611ddf611e4b565b500390565b60005b83811015611dff578181015183820152602001611de7565b838111156112d05750506000910152565b600181811c90821680611e2457607f821691505b60208210811415611e4557634e487b7160e01b600052602260045260246000fd5b50919050565b634e487b7160e01b600052601160045260246000fdfea26469706673582212208aa4c81650a38a6a3a83695bb81c0b1a3fd9d27e4d6b05573583c816b81292e164736f6c63430008040033",
  "linkReferences": {},
  "deployedLinkReferences": {}
}