{
  "_format": "hh-sol-artifact-1",
  "contractName": "TreasuryFund",
  "sourceName": "contracts/TreasuryFund.sol",
  "abi": [
    {
      "anonymous": false,
      "inputs": [
        {
          "indexed": true,
          "internalType": "address",
          "name": "previousOwner",
          "type": "address"
        },
        {
          "indexed": true,
          "internalType": "address",
          "name": "newOwner",
          "type": "address"
        }
      ],
      "name": "OwnershipTransferred",
      "type": "event"
    },
    {
      "inputs": [],
      "name": "claim",
      "outputs": [],
      "stateMutability": "nonpayable",
      "type": "function"
    },
    {
      "inputs": [],
      "name": "claimable",
      "outputs": [
        {
          "internalType": "uint256",
          "name": "",
          "type": "uint256"
        }
      ],
      "stateMutability": "view",
      "type": "function"
    },
    {
      "inputs": [],
      "name": "claimed_amount",
      "outputs": [
        {
          "internalType": "uint256",
          "name": "",
          "type": "uint256"
        }
      ],
      "stateMutability": "view",
      "type": "function"
    },
    {
      "inputs": [],
      "name": "fundBalance",
      "outputs": [
        {
          "internalType": "uint256",
          "name": "",
          "type": "uint256"
        }
      ],
      "stateMutability": "view",
      "type": "function"
    },
    {
      "inputs": [],
      "name": "ice",
      "outputs": [
        {
          "internalType": "contract IRewardToken",
          "name": "",
          "type": "address"
        }
      ],
      "stateMutability": "view",
      "type": "function"
    },
    {
      "inputs": [],
      "name": "last_claimed",
      "outputs": [
        {
          "internalType": "uint256",
          "name": "",
          "type": "uint256"
        }
      ],
      "stateMutability": "view",
      "type": "function"
    },
    {
      "inputs": [],
      "name": "owner",
      "outputs": [
        {
          "internalType": "address",
          "name": "",
          "type": "address"
        }
      ],
      "stateMutability": "view",
      "type": "function"
    },
    {
      "inputs": [],
      "name": "renounceOwnership",
      "outputs": [],
      "stateMutability": "nonpayable",
      "type": "function"
    },
    {
      "inputs": [
        {
          "internalType": "address",
          "name": "_receiver",
          "type": "address"
        },
        {
          "internalType": "uint256",
          "name": "_amount",
          "type": "uint256"
        }
      ],
      "name": "sendTo",
      "outputs": [],
      "stateMutability": "nonpayable",
      "type": "function"
    },
    {
      "inputs": [
        {
          "internalType": "address",
          "name": "newOwner",
          "type": "address"
        }
      ],
      "name": "transferOwnership",
      "outputs": [],
      "stateMutability": "nonpayable",
      "type": "function"
    }
  ],
  "bytecode": "0x6080604052600180546001600160a01b031916734a81f8796e0c6ad4877a51c86693b0de8093f2ef1790556360ec3cd060035534801561003e57600080fd5b506100483361004d565b61009d565b600080546001600160a01b038381166001600160a01b0319831681178455604051919092169283917f8be0079c531659141344cd1fd0a4f28419497f9722a3daafe3b4186f6b6457e09190a35050565b610925806100ac6000396000f3fe608060405234801561001057600080fd5b506004361061009e5760003560e01c80639c04c988116100665780639c04c9881461010c5780639e1a00aa14610115578063af38d75714610128578063c78ae3dc14610130578063f2fde38b1461013957600080fd5b80633c067945146100a35780634c2a860d146100be5780634e71d92d146100e9578063715018a6146100f35780638da5cb5b146100fb575b600080fd5b6100ab61014c565b6040519081526020015b60405180910390f35b6001546100d1906001600160a01b031681565b6040516001600160a01b0390911681526020016100b5565b6100f16101cd565b005b6100f1610295565b6000546001600160a01b03166100d1565b6100ab60035481565b6100f1610123366004610756565b6102cb565b6100ab610358565b6100ab60025481565b6100f161014736600461073c565b610399565b6001546040516370a0823160e01b81523060048201526000916001600160a01b0316906370a082319060240160206040518083038186803b15801561019057600080fd5b505afa1580156101a4573d6000803e3d6000fd5b505050506040513d601f19601f820116820180604052508101906101c8919061079f565b905090565b6000546001600160a01b031633146102005760405162461bcd60e51b81526004016101f790610806565b60405180910390fd5b600061020a610358565b90508015610292576001546040516340c10f1960e01b8152306004820152602481018390526001600160a01b03909116906340c10f1990604401600060405180830381600087803b15801561025e57600080fd5b505af1158015610272573d6000803e3d6000fd5b505050508060026000828254610288919061083b565b9091555050426003555b50565b6000546001600160a01b031633146102bf5760405162461bcd60e51b81526004016101f790610806565b6102c9600061042d565b565b6000546001600160a01b031633146102f55760405162461bcd60e51b81526004016101f790610806565b6001600160a01b03821661033d5760405162461bcd60e51b815260206004820152600f60248201526e496e76616c6964206164647265737360881b60448201526064016101f7565b600154610354906001600160a01b0316838361047d565b5050565b600060035442116103695750600090565b6003546103769042610892565b61038f6305a39a806a52b7d2dcc80cd2e4000000610853565b6101c89190610873565b6000546001600160a01b031633146103c35760405162461bcd60e51b81526004016101f790610806565b6001600160a01b0381166104285760405162461bcd60e51b815260206004820152602660248201527f4f776e61626c653a206e6577206f776e657220697320746865207a65726f206160448201526564647265737360d01b60648201526084016101f7565b610292815b600080546001600160a01b038381166001600160a01b0319831681178455604051919092169283917f8be0079c531659141344cd1fd0a4f28419497f9722a3daafe3b4186f6b6457e09190a35050565b604080516001600160a01b038416602482015260448082018490528251808303909101815260649091019091526020810180516001600160e01b031663a9059cbb60e01b1790526104cf9084906104d4565b505050565b6000610529826040518060400160405280602081526020017f5361666545524332303a206c6f772d6c6576656c2063616c6c206661696c6564815250856001600160a01b03166105a69092919063ffffffff16565b8051909150156104cf5780806020019051810190610547919061077f565b6104cf5760405162461bcd60e51b815260206004820152602a60248201527f5361666545524332303a204552433230206f7065726174696f6e20646964206e6044820152691bdd081cdd58d8d9595960b21b60648201526084016101f7565b60606105b584846000856105bf565b90505b9392505050565b6060824710156106205760405162461bcd60e51b815260206004820152602660248201527f416464726573733a20696e73756666696369656e742062616c616e636520666f6044820152651c8818d85b1b60d21b60648201526084016101f7565b843b61066e5760405162461bcd60e51b815260206004820152601d60248201527f416464726573733a2063616c6c20746f206e6f6e2d636f6e747261637400000060448201526064016101f7565b600080866001600160a01b0316858760405161068a91906107b7565b60006040518083038185875af1925050503d80600081146106c7576040519150601f19603f3d011682016040523d82523d6000602084013e6106cc565b606091505b50915091506106dc8282866106e7565b979650505050505050565b606083156106f65750816105b8565b8251156107065782518084602001fd5b8160405162461bcd60e51b81526004016101f791906107d3565b80356001600160a01b038116811461073757600080fd5b919050565b60006020828403121561074d578081fd5b6105b882610720565b60008060408385031215610768578081fd5b61077183610720565b946020939093013593505050565b600060208284031215610790578081fd5b815180151581146105b8578182fd5b6000602082840312156107b0578081fd5b5051919050565b600082516107c98184602087016108a9565b9190910192915050565b60208152600082518060208401526107f28160408501602087016108a9565b601f01601f19169190910160400192915050565b6020808252818101527f4f776e61626c653a2063616c6c6572206973206e6f7420746865206f776e6572604082015260600190565b6000821982111561084e5761084e6108d9565b500190565b60008261086e57634e487b7160e01b81526012600452602481fd5b500490565b600081600019048311821515161561088d5761088d6108d9565b500290565b6000828210156108a4576108a46108d9565b500390565b60005b838110156108c45781810151838201526020016108ac565b838111156108d3576000848401525b50505050565b634e487b7160e01b600052601160045260246000fdfea26469706673582212201d19822a232394196275bf2bb79d1181980faf54563c574d9cb659b7ee467ea164736f6c63430008040033",
  "linkReferences": {},
  "deployedLinkReferences": {}
}